:1000000009C0FDC00DC0B3C10BC00AC02EC12BC1B9
:1000100007C006C011241FBECFE9CDBFC7D1C9C1DB
:10002000EFCFE199FECF8EBBE09A8DB30895712C8E
:1000300084E0682204B603FE612C8DEF88BB81E06A
:1000400085BD18E785EA89BD8EE886BF80E48BBF51
:1000500082E083BF14BE82E285BF78940895CF9377
:1000600088E478129AC0882D8430D1F140F482302F
:1000700009F46EC030F5813009F08DC00BC08630B8
:10008000C9F108F47AC0873009F440C0883009F01B
:1000900082C07DC0822D8E3F59F4C2E08C2E862D09
:1000A0008B7F98E1692E682A23E0422E512C73C081
:1000B00062FE05C0251003C0B3E08B2E6AC0712C10
:1000C0006AC0822D813019F0823039F403C0A4E077
:1000D0008A2E5FC0F6E08F2E5CC0E4E09E2E59C0F1
:1000E000822D422C90E1692A75E0872E803408F435
:1000F00052C04DC0822D422C57E0852E67E8762EE7
:10010000803408F448C099249A9445C0842D8034E2
:1001100018F099249A9439C0C22D83DFC817A9F129
:10012000842D942D9350983018F44EEF942E2DC0BA
:10013000922DE199FECF1CBA8EBB9DBBE29AE19A4B
:10014000C22D842D6EDFC81701F13DEF932E1DC027
:100150008BE048120CC060FE06C023E0422E539490
:1001600090E4692A04C0812C84E2682A12C060FEEF
:1001700002C066FE0AC0842D06C0842D803418F0AB
:1001800098E0892E06C04DDF282E439402C09924A2
:100190009A9487E8782E91E0A92AB19B02C082E068
:1001A000A82AA1FE06C0A0FC02C0711002C0A8953A
:1001B000A12CF89401B403FC05C0A8958AE181BD87
:1001C0008AE081BD872D8834B9F0711013C089B7DA
:1001D000811110C0B19B0EC085B7877E806185BF3D
:1001E0008AE181BD11BC85B78D7F85BF81E080BF6D
:1001F00082E080BF789488957894CF91089512BF5B
:1002000000C01F920F920FB60F9211248F9382E0BD
:1002100089BFB99860FE08C0872D75FE05C00F2EF6
:10022000FFE37F2EF02D782276FE04C0B99A89B7BD
:10023000886089BF8EE088BF80E48ABF85B782600E
:1002400085BF85B7877E85BF82E0A82A77FE04C078
:1002500089B7846089BF01C00AD08F910F900FBE0B
:100260000F901F901895B998189506B300C01F926B
:100270000F920FB60F9211248F939F93872D8F703B
:10028000843009F44FC040F4823071F008F044C06B
:10029000813009F065C017C0863049F108F43FC0CD
:1002A000873009F05DC04EC001FF02C023286826D8
:1002B000332011F0369454C061FC15C097E8792EB4
:1002C00083E0982E4DC077FE04C001FD02C081E09E
:1002D000682A31100BC0992031F087E8782E912CD4
:1002E00080E2682A3DC098E4792E3AC03694832D86
:1002F000332019F0822131F402C061FE03C081E68F
:10030000782E2EC063FE03C091EA792E02C081E2EE
:10031000782E82E0682624C094E2792E21C086E6F9
:10032000782E1EC0862D65FE02C0712C19C066FE97
:1003300003C09EEB692E682264FCD9CF92E8792E27
:10034000212C0EC001FF0CC08DEF682280E8382EF2
:10035000992021F095E2792E292C02C083E6782E8F
:100360009F918F910F900FBE0F901F9018951F9225
:100370000F920FB60F9211248F9386B319BE0AB64F
:1003800006FC0EC081FF02C0712C0AC08824839431
:1003900082E8782E912C212C80E8382E84E0682287
:1003A0008F910F900FBE0F901F90189540DE57DE73
:0603B000FECFF894FFCF20
:00000001FF
